{
  "_format": "hh-sol-artifact-1",
  "contractName": "Raffle",
  "sourceName": "contracts/Raffle.sol",
  "abi": [
    {
      "inputs": [
        {
          "internalType": "address",
          "name": "vrfCordinatorv2",
          "type": "address"
        },
        {
          "internalType": "uint256",
          "name": "entranceFee",
          "type": "uint256"
        },
        {
          "internalType": "bytes32",
          "name": "gasLane",
          "type": "bytes32"
        },
        {
          "internalType": "uint64",
          "name": "subscriptionID",
          "type": "uint64"
        },
        {
          "internalType": "uint32",
          "name": "callbackGasLimit",
          "type": "uint32"
        },
        {
          "internalType": "uint256",
          "name": "interval",
          "type": "uint256"
        }
      ],
      "stateMutability": "nonpayable",
      "type": "constructor"
    },
    {
      "inputs": [
        {
          "internalType": "address",
          "name": "have",
          "type": "address"
        },
        {
          "internalType": "address",
          "name": "want",
          "type": "address"
        }
      ],
      "name": "OnlyCoordinatorCanFulfill",
      "type": "error"
    },
    {
      "inputs": [],
      "name": "Raffle__NotEnoughEthEntered",
      "type": "error"
    },
    {
      "inputs": [],
      "name": "Raffle__NotOpen",
      "type": "error"
    },
    {
      "inputs": [],
      "name": "Raffle__TransferFailed",
      "type": "error"
    },
    {
      "inputs": [
        {
          "internalType": "uint256",
          "name": "currentBalance",
          "type": "uint256"
        },
        {
          "internalType": "uint256",
          "name": "numPlayers",
          "type": "uint256"
        },
        {
          "internalType": "uint256",
          "name": "raffleState",
          "type": "uint256"
        }
      ],
      "name": "Raffle__UpkeepNotNeeded",
      "type": "error"
    },
    {
      "anonymous": false,
      "inputs": [
        {
          "indexed": true,
          "internalType": "address",
          "name": "players",
          "type": "address"
        }
      ],
      "name": "RaffleEnter",
      "type": "event"
    },
    {
      "anonymous": false,
      "inputs": [
        {
          "indexed": true,
          "internalType": "uint256",
          "name": "requestID",
          "type": "uint256"
        }
      ],
      "name": "RequestedRaffleWinner",
      "type": "event"
    },
    {
      "anonymous": false,
      "inputs": [
        {
          "indexed": true,
          "internalType": "address",
          "name": "winner",
          "type": "address"
        }
      ],
      "name": "WinnerPicked",
      "type": "event"
    },
    {
      "inputs": [
        {
          "internalType": "bytes",
          "name": "",
          "type": "bytes"
        }
      ],
      "name": "checkUpkeep",
      "outputs": [
        {
          "internalType": "bool",
          "name": "upkeepNeeded",
          "type": "bool"
        },
        {
          "internalType": "bytes",
          "name": "",
          "type": "bytes"
        }
      ],
      "stateMutability": "nonpayable",
      "type": "function"
    },
    {
      "inputs": [],
      "name": "enterRaffle",
      "outputs": [],
      "stateMutability": "payable",
      "type": "function"
    },
    {
      "inputs": [],
      "name": "getEntranceFee",
      "outputs": [
        {
          "internalType": "uint256",
          "name": "",
          "type": "uint256"
        }
      ],
      "stateMutability": "view",
      "type": "function"
    },
    {
      "inputs": [],
      "name": "getNumWords",
      "outputs": [
        {
          "internalType": "uint256",
          "name": "",
          "type": "uint256"
        }
      ],
      "stateMutability": "view",
      "type": "function"
    },
    {
      "inputs": [
        {
          "internalType": "uint256",
          "name": "index",
          "type": "uint256"
        }
      ],
      "name": "getPlayers",
      "outputs": [
        {
          "internalType": "address",
          "name": "",
          "type": "address"
        }
      ],
      "stateMutability": "view",
      "type": "function"
    },
    {
      "inputs": [],
      "name": "getRaffleState",
      "outputs": [
        {
          "internalType": "enum Raffle.RaffleState",
          "name": "",
          "type": "uint8"
        }
      ],
      "stateMutability": "view",
      "type": "function"
    },
    {
      "inputs": [],
      "name": "getRecentWinner",
      "outputs": [
        {
          "internalType": "address",
          "name": "",
          "type": "address"
        }
      ],
      "stateMutability": "view",
      "type": "function"
    },
    {
      "inputs": [
        {
          "internalType": "bytes",
          "name": "",
          "type": "bytes"
        }
      ],
      "name": "performUpkeep",
      "outputs": [],
      "stateMutability": "nonpayable",
      "type": "function"
    },
    {
      "inputs": [
        {
          "internalType": "uint256",
          "name": "requestId",
          "type": "uint256"
        },
        {
          "internalType": "uint256[]",
          "name": "randomWords",
          "type": "uint256[]"
        }
      ],
      "name": "rawFulfillRandomWords",
      "outputs": [],
      "stateMutability": "nonpayable",
      "type": "function"
    }
  ],
  "bytecode": "0x6101606040523480156200001257600080fd5b50604051620016fe380380620016fe8339818101604052810190620000389190620001ad565b858073ffffffffffffffffffffffffffffffffffffffff1660808173ffffffffffffffffffffffffffffffffffffffff1660601b81525050508460a081815250508573ffffffffffffffffffffffffffffffffffffffff1660c08173ffffffffffffffffffffffffffffffffffffffff1660601b815250508360e081815250508267ffffffffffffffff166101008167ffffffffffffffff1660c01b815250508163ffffffff166101208163ffffffff1660e01b815250506000600160146101000a81548160ff02191690836001811115620001195762000118620002b5565b5b0217905550426002819055508061014081815250505050505050506200036b565b6000815190506200014b81620002e9565b92915050565b600081519050620001628162000303565b92915050565b60008151905062000179816200031d565b92915050565b600081519050620001908162000337565b92915050565b600081519050620001a78162000351565b92915050565b60008060008060008060c08789031215620001cd57620001cc620002e4565b5b6000620001dd89828a016200013a565b9650506020620001f089828a0162000168565b95505060406200020389828a0162000151565b94505060606200021689828a0162000196565b93505060806200022989828a016200017f565b92505060a06200023c89828a0162000168565b9150509295509295509295565b6000620002568262000267565b9050919050565b6000819050919050565b600073ffffffffffffffffffffffffffffffffffffffff82169050919050565b6000819050919050565b600063ffffffff82169050919050565b600067ffffffffffffffff82169050919050565b7f4e487b7100000000000000000000000000000000000000000000000000000000600052602160045260246000fd5b600080fd5b620002f48162000249565b81146200030057600080fd5b50565b6200030e816200025d565b81146200031a57600080fd5b50565b620003288162000287565b81146200033457600080fd5b50565b620003428162000291565b81146200034e57600080fd5b50565b6200035c81620002a1565b81146200036857600080fd5b50565b60805160601c60a05160c05160601c60e0516101005160c01c6101205160e01c6101405161131e620003e0600039600061073d015260006105b3015260006105900152600061056f01526000610533015260008181610212015261030f01526000818161024f01526102a3015261131e6000f3fe6080604052600436106100865760003560e01c80634585e33b116100595780634585e33b14610114578063460e20491461013d578063473f1ddc1461017a57806353a2c19a146101a55780636e04ff0d146101d057610086565b806309bc33a71461008b578063115cbaf5146100b65780631fe543e3146100e15780632cfcc5391461010a575b600080fd5b34801561009757600080fd5b506100a061020e565b6040516100ad9190610f24565b60405180910390f35b3480156100c257600080fd5b506100cb610236565b6040516100d89190610f09565b60405180910390f35b3480156100ed57600080fd5b5061010860048036038101906101039190610cfd565b61024d565b005b61011261030d565b005b34801561012057600080fd5b5061013b60048036038101906101369190610c0d565b61047c565b005b34801561014957600080fd5b50610164600480360381019061015f9190610ca3565b61067b565b6040516101719190610e42565b60405180910390f35b34801561018657600080fd5b5061018f6106c2565b60405161019c9190610e42565b60405180910390f35b3480156101b157600080fd5b506101ba6106ec565b6040516101c79190610f24565b60405180910390f35b3480156101dc57600080fd5b506101f760048036038101906101f29190610c5a565b6106fb565b604051610205929190610e86565b60405180910390f35b60007f0000000000000000000000000000000000000000000000000000000000000000905090565b6000600160149054906101000a900460ff16905090565b7f000000000000000000000000000000000000000000000000000000000000000073ffffffffffffffffffffffffffffffffffffffff163373ffffffffffffffffffffffffffffffffffffffff16146102ff57337f00000000000000000000000000000000000000000000000000000000000000006040517f1cf993f40000000000000000000000000000000000000000000000000000000081526004016102f6929190610e5d565b60405180910390fd5b61030982826107a7565b5050565b7f0000000000000000000000000000000000000000000000000000000000000000341115610367576040517f066d781f00000000000000000000000000000000000000000000000000000000815260040160405180910390fd5b6000600181111561037b5761037a6111fe565b5b600160149054906101000a900460ff16600181111561039d5761039c6111fe565b5b146103d4576040517f1425571c00000000000000000000000000000000000000000000000000000000815260040160405180910390fd5b6000339080600181540180825580915050600190039060005260206000200160009091909190916101000a81548173ffffffffffffffffffffffffffffffffffffffff021916908373ffffffffffffffffffffffffffffffffffffffff1602179055503373ffffffffffffffffffffffffffffffffffffffff167f0805e1d667bddb8a95f0f09880cf94f403fb596ce79928d9f29b74203ba284d460405160405180910390a2565b6000610496604051806020016040528060008152506106fb565b509050806105055747600080549050600160149054906101000a900460ff1660018111156104c7576104c66111fe565b5b6040517f584327aa0000000000000000000000000000000000000000000000000000000081526004016104fc93929190610f3f565b60405180910390fd5b60018060146101000a81548160ff0219169083600181111561052a576105296111fe565b5b021790555060007f000000000000000000000000000000000000000000000000000000000000000073ffffffffffffffffffffffffffffffffffffffff16635d3b1d307f00000000000000000000000000000000000000000000000000000000000000007f000000000000000000000000000000000000000000000000000000000000000060037f000000000000000000000000000000000000000000000000000000000000000060016040518663ffffffff1660e01b81526004016105f4959493929190610eb6565b602060405180830381600087803b15801561060e57600080fd5b505af1158015610622573d6000803e3d6000fd5b505050506040513d601f19601f820116820180604052508101906106469190610cd0565b9050807fcd6e45c8998311cab7e9d4385596cac867e20a0587194b954fa3a731c93ce78b60405160405180910390a250505050565b60008082815481106106905761068f61122d565b5b9060005260206000200160009054906101000a900473ffffffffffffffffffffffffffffffffffffffff169050919050565b6000600160009054906101000a900473ffffffffffffffffffffffffffffffffffffffff16905090565b6000600163ffffffff16905090565b600060606000806001811115610714576107136111fe565b5b600160149054906101000a900460ff166001811115610736576107356111fe565b5b14905060007f00000000000000000000000000000000000000000000000000000000000000006002544261076a919061101f565b1190506000806000805490501190506000804711905083801561078a5750825b80156107935750815b801561079c5750805b955050505050915091565b60008080549050826000815181106107c2576107c161122d565b5b60200260200101516107d4919061116f565b905060008082815481106107eb576107ea61122d565b5b9060005260206000200160009054906101000a900473ffffffffffffffffffffffffffffffffffffffff16905080600160006101000a81548173ffffffffffffffffffffffffffffffffffffffff021916908373ffffffffffffffffffffffffffffffffffffffff1602179055506000600160146101000a81548160ff0219169083600181111561087f5761087e6111fe565b5b021790555042600281905550600067ffffffffffffffff8111156108a6576108a561125c565b5b6040519080825280602002602001820160405280156108d45781602001602082028036833780820191505090505b50600090805190602001906108ea9291906109d8565b5060008173ffffffffffffffffffffffffffffffffffffffff164760405161091190610e2d565b60006040518083038185875af1925050503d806000811461094e576040519150601f19603f3d011682016040523d82523d6000602084013e610953565b606091505b505090508061098e576040517fa1d04b3900000000000000000000000000000000000000000000000000000000815260040160405180910390fd5b8173ffffffffffffffffffffffffffffffffffffffff167f5b690ec4a06fe979403046eaeea5b3ce38524683c3001f662c8b5a829632f7df60405160405180910390a25050505050565b828054828255906000526020600020908101928215610a51579160200282015b82811115610a505782518260006101000a81548173ffffffffffffffffffffffffffffffffffffffff021916908373ffffffffffffffffffffffffffffffffffffffff160217905550916020019190600101906109f8565b5b509050610a5e9190610a62565b5090565b5b80821115610a7b576000816000905550600101610a63565b5090565b6000610a92610a8d84610f9b565b610f76565b90508083825260208201905082856020860282011115610ab557610ab4611295565b5b60005b85811015610ae55781610acb8882610be3565b845260208401935060208301925050600181019050610ab8565b5050509392505050565b6000610b02610afd84610fc7565b610f76565b905082815260208101848484011115610b1e57610b1d61129a565b5b610b298482856110fc565b509392505050565b600082601f830112610b4657610b45611290565b5b8135610b56848260208601610a7f565b91505092915050565b60008083601f840112610b7557610b74611290565b5b8235905067ffffffffffffffff811115610b9257610b9161128b565b5b602083019150836001820283011115610bae57610bad611295565b5b9250929050565b600082601f830112610bca57610bc9611290565b5b8135610bda848260208601610aef565b91505092915050565b600081359050610bf2816112d1565b92915050565b600081519050610c07816112d1565b92915050565b60008060208385031215610c2457610c236112a4565b5b600083013567ffffffffffffffff811115610c4257610c4161129f565b5b610c4e85828601610b5f565b92509250509250929050565b600060208284031215610c7057610c6f6112a4565b5b600082013567ffffffffffffffff811115610c8e57610c8d61129f565b5b610c9a84828501610bb5565b91505092915050565b600060208284031215610cb957610cb86112a4565b5b6000610cc784828501610be3565b91505092915050565b600060208284031215610ce657610ce56112a4565b5b6000610cf484828501610bf8565b91505092915050565b60008060408385031215610d1457610d136112a4565b5b6000610d2285828601610be3565b925050602083013567ffffffffffffffff811115610d4357610d4261129f565b5b610d4f85828601610b31565b9150509250929050565b610d6281611053565b82525050565b610d7181611065565b82525050565b610d8081611071565b82525050565b6000610d9182610ff8565b610d9b8185611003565b9350610dab81856020860161110b565b610db4816112a9565b840191505092915050565b610dc8816110ea565b82525050565b6000610ddb600083611014565b9150610de6826112ba565b600082019050919050565b610dfa8161108e565b82525050565b610e09816110bc565b82525050565b610e18816110c6565b82525050565b610e27816110d6565b82525050565b6000610e3882610dce565b9150819050919050565b6000602082019050610e576000830184610d59565b92915050565b6000604082019050610e726000830185610d59565b610e7f6020830184610d59565b9392505050565b6000604082019050610e9b6000830185610d68565b8181036020830152610ead8184610d86565b90509392505050565b600060a082019050610ecb6000830188610d77565b610ed86020830187610e1e565b610ee56040830186610df1565b610ef26060830185610e0f565b610eff6080830184610e0f565b9695505050505050565b6000602082019050610f1e6000830184610dbf565b92915050565b6000602082019050610f396000830184610e00565b92915050565b6000606082019050610f546000830186610e00565b610f616020830185610e00565b610f6e6040830184610e00565b949350505050565b6000610f80610f91565b9050610f8c828261113e565b919050565b6000604051905090565b600067ffffffffffffffff821115610fb657610fb561125c565b5b602082029050602081019050919050565b600067ffffffffffffffff821115610fe257610fe161125c565b5b610feb826112a9565b9050602081019050919050565b600081519050919050565b600082825260208201905092915050565b600081905092915050565b600061102a826110bc565b9150611035836110bc565b925082821015611048576110476111a0565b5b828203905092915050565b600061105e8261109c565b9050919050565b60008115159050919050565b6000819050919050565b6000819050611089826112bd565b919050565b600061ffff82169050919050565b600073ffffffffffffffffffffffffffffffffffffffff82169050919050565b6000819050919050565b600063ffffffff82169050919050565b600067ffffffffffffffff82169050919050565b60006110f58261107b565b9050919050565b82818337600083830152505050565b60005b8381101561112957808201518184015260208101905061110e565b83811115611138576000848401525b50505050565b611147826112a9565b810181811067ffffffffffffffff821117156111665761116561125c565b5b80604052505050565b600061117a826110bc565b9150611185836110bc565b925082611195576111946111cf565b5b828206905092915050565b7f4e487b7100000000000000000000000000000000000000000000000000000000600052601160045260246000fd5b7f4e487b7100000000000000000000000000000000000000000000000000000000600052601260045260246000fd5b7f4e487b7100000000000000000000000000000000000000000000000000000000600052602160045260246000fd5b7f4e487b7100000000000000000000000000000000000000000000000000000000600052603260045260246000fd5b7f4e487b7100000000000000000000000000000000000000000000000000000000600052604160045260246000fd5b600080fd5b600080fd5b600080fd5b600080fd5b600080fd5b600080fd5b6000601f19601f8301169050919050565b50565b600281106112ce576112cd6111fe565b5b50565b6112da816110bc565b81146112e557600080fd5b5056fea2646970667358221220e528dc572bbbfff8c83144326b63475e2f15f97decab8338e637eee475fffa7564736f6c63430008070033",
  "linkReferences": {},
  "deployedLinkReferences": {}
}